:100000000C94E1000C94FE000C94FE000C94FE0095
:100010000C94FE000C94FE000C94FE000C94FE0068
:100020000C94FE000C94FE000C94FE000C94B8039B
:100030000C94FE000C94FE000C94FE000C943D0306
:100040000C94FE000C94FE000C940E030C94FE0025
:100050000C9409040C94FE000C94FE000C94FE0019
:100060000C94FE000C94FE000C9435040C94FE00DD
:100070000C94FE000C94FE000C94FE00AA01AE014C
:10008000B201B601BA01BE01C201C601CA01CE0168
:10009000A801C40C130D130D130D130D130D130D27
:1000A000130DC40C130D130D130D130D130D130DA0
:1000B000130DC60C130D130D130D130D130D130D8E
:1000C000130D130D130D130D130D130D130D130D30
:1000D000130DC60C130D130D130D130D130D130D6E
:1000E000130D130D130D130D130D130D130D130D10
:1000F000130D0F0D130D130D130D130D130D130D04
:10010000130DEE0C130D130D130D130D130D130D15
:10011000130D130D130D130D130D130D130D130DDF
:10012000130DE20C130D130D130D130D130D130D01
:10013000130D000D07634236B79BD8A71A396856CE
:1001400018AEBAAB558C1D3CB7CC5763BD6DEDFDF9
:10015000753EF6177231BF000000803F08000000B6
:10016000BE922449123EABAAAA2ABECDCCCC4C3EAC
:1001700000000080BEABAAAAAA3E00000000BF009B
:100180000000803F0000000000084178D3BB438797
:10019000D1133D190E3CC3BD4282AD2B3E68EC82AB
:1001A00076BED98FE1A93E4C80EFFFBE01C4FF7F30
:1001B0003F00000000006364696E6F7073757858CB
:1001C0005B0011241FBECFEFD8E0DEBFCDBF11E032
:1001D000A0E0B1E0EEE5FAE202C005900D92A8378A
:1001E000B107D9F722E0A8E7B1E001C01D92AD3315
:1001F000B207E1F70E9493070C942D150C940000B0
:1002000082E090E00E94CD1490931F0280931E0222
:100210008FE19EE40197F1F700C0000080911E027B
:1002200090911F0201978F3F910590F081E490E03B
:1002300090931F0280931E0261E470E082E090E0E0
:100240000E94D3148FE19EE40197F1F700C00000F3
:1002500080E090E00E94CD149093F8018093F70124
:100260008FE19EE40197F1F700C000008091F70153
:100270009091F80101978336910590F08EE190E01E
:100280009093F8018093F7016EE170E080E090E0D8
:100290000E94D3148FE19EE40197F1F700C00000A3
:1002A000089560911E0270911F0282E090E00E940A
:1002B000D3148FE19EE40197F1F700C00000609134
:1002C000F7017091F80180E090E00E94D3148FE173
:1002D0009EE40197F1F700C0000008958330A9F073
:1002E00028F4813041F0823059F020C0843091F000
:1002F0008530A9F01BC088B1877C88B9469A0895DB
:1003000088B1877A88B9459A089588B1877988B97C
:10031000449A089588B18F7888B9439A089588B12E
:10032000877B88B988B1806388B9089588B1886768
:1003300088B90895E82F82B1847082B98E2F90E039
:100340008B30910570F5FC01E25CFF4F0C945E115F
:10035000149A089582B18B6E82B9089582B1886231
:1003600082B9089582B1836B82B9089582B18A6B94
:1003700082B9089582B1886782B9089582B18A6D81
:1003800082B9089582B18B6D82B9089582B1886A6D
:1003900082B9089582B18B6F82B9089582B18A6F54
:1003A00082B9089595B19F6095B9823059F018F4DB
:1003B000813031F00895833039F0843039F0089578
:1003C00028980895299808952A9808952B980895B3
:1003D000982F80ED890F8A3040F08FEB890F86309F
:1003E00018F489EC890F0895892F08951F93CF93EE
:1003F000DF93843261F4109203018FEF8093020146
:100400008BE791E0909301018093000103C19091EB
:1004100003019F3F09F4FEC021E0290F209303014F
:10042000223018F480937A01F5C08A3271F4109268
:100430007B0110927C0110927D0110927E0181E07F
:100440008093790110927801E5C020917901211102
:10045000DCC020917A01282720937A0191509430B2
:1004600078F5E0910001F09101018193F093010191
:10047000E0930001CFC090917801E92FF0E0EF57B1
:10048000FE4F808381E0890F80937801823008F4E9
:10049000C1C010927901C1E8D1E088810E94E801D1
:1004A000182F89810E94E80190E1199F800D112485
:1004B00090917A01891709F4ADC010920702AAC081
:1004C00040917B0150917C0160917D0170917E0192
:1004D0004E3492E559079DE4690793E4790781F06A
:1004E000403597E4590793E5690796E5790709F4DC
:1004F0005DC04E3457446744714409F082C02BC03C
:100500008C3289F4E0910201EF5FE09302011092D6
:100510007801F0E0EE0FFF1FE55AFE4F0190F081E9
:10052000E02D108277C0E0910201F0E0EE0FFF1F96
:10053000E55AFE4F208131814091780191E0940F7E
:1005400090937801F901E40FF11D8083F901E90F1F
:10055000F11D10825FC08C3289F4E0910201EF5FDF
:10056000E093020110927801F0E0EE0FFF1FE55CCE
:10057000FE4F0190F081E02D10824CC0E09102010D
:10058000F0E0EE0FFF1FE55CFE4F208131814091CE
:10059000780191E0940F90937801F901E40FF11D37
:1005A0008083F901E90FF11D108234C08C3289F487
:1005B000E0910201EF5FE093020110927801F0E018
:1005C000EE0FFF1FEF5EFE4F0190F081E02D1082D5
:1005D00021C0E0910201F0E0EE0FFF1FEF5EFE4F41
:1005E000208131814091780191E0940F90937801BE
:1005F000F901E40FF11D8083F901E90FF11D10826B
:1006000009C08FEF8093030105C09150943008F02A
:1006100032CF27CFDF91CF911F9108951F920F9274
:100620000FB60F9211248F93F894329908C08091DD
:1006300033028F3F49F08F5F8093330205C01092E1
:10064000330281E08093040180912502882319F010
:10065000815080932502809120028F5F8093200239
:100660008091FC018F5F8093FC0116BC78948F9180
:100670000F900FBE0F901F9018951F920F920FB6FC
:100680000F921124CF92DF92EF92FF922F933F931C
:100690004F935F936F937F938F939F93AF93BF938A
:1006A000EF93FF93609103027091040280E090E069
:1006B0000E942C0E20E030E040E152E40E948B0DBD
:1006C0000E94CF0F6B017C0160912B0270912C0274
:1006D00080912D0290912E020E942C0EA70196016E
:1006E0000E941A0D0E94FD0D6B017C010E942C0ED0
:1006F00020E836E948E15BE40E94050F88234CF4CA
:10070000C0922B02D0922C02E0922D02F0922E0287
:1007100008C010922B0210922C0210922D021092FF
:100720002E0281E09091F501911180E08093F50116
:100730008091FB018F5F8093FB0187EF92EC909398
:10074000850080938400FF91EF91BF91AF919F91BD
:100750008F917F916F915F914F913F912F91FF907A
:10076000EF90DF90CF900F900FBE0F901F901895D5
:100770001F920F920FB60F9211242F933F938F93D6
:100780009F93F8948AED8093B20080913802909103
:100790003902019690933902809338028F3F2FEFF0
:1007A000920739F020913A0230913B028217930769
:1007B00028F0109239021092380205C0892B19F0E6
:1007C0002F3F3F4F89F45F9A809138029091390210
:1007D00020917F01309180018217930719F40196CF
:1007E00009F05F9878940CC020913802309139025A
:1007F00080917F01909180012817390799F7F1CFF7
:100800009F918F913F912F910F900FBE0F901F904E
:1008100018951F920F920FB60F9211242F933F93AA
:100820004F935F936F937F938F939F93AF93BF93F8
:10083000EF93FF93F8948091C60080932A020E9460
:10084000F601109220027894FF91EF91BF91AF9141
:100850009F918F917F916F915F914F913F912F91D8
:100860000F900FBE0F901F9018951F920F920FB60A
:100870000F9211242F933F934F935F936F937F9326
:100880008F939F93AF93BF93EF93FF930E94B50C09
:10089000FF91EF91BF91AF919F918F917F916F9158
:1008A0005F914F913F912F910F900FBE0F901F902E
:1008B00018951092C50086E68093C4001092C0007F
:1008C00088E98093C10086E08093C20080E090E0D8
:1008D0000895FC016115710549F19081292F30E0DF
:1008E000205331092A3031050CF048C0DF01119640
:1008F0006E0F7F1F20E030E006C09D91E92FF0E0F1
:10090000F0973A97F4F5F901EE0FFF1F220F331F0E
:10091000220F331F220F331F2E0F3F1F290F311DB0
:1009200020533109A617B70741F702C020E030E095
:10093000642F042E000C770B77231CF471956195BE
:10094000710954E6569FC001579F900D112444230E
:100950001CF0280F391F0AC02817390728F4281B54
:10096000390B205A364F02C0281B390B203689E03C
:10097000380750F0C90180569940089580E090E012
:10098000089580E090E00895C901089580910502DE
:10099000813441F0863541F48091FC018E3128F09C
:1009A000129A0895129A08951298089582B18B763A
:1009B00082B982B18B6682B9089582B1817D82B994
:1009C00082B1816D82B9089582B1837D82B982B18D
:1009D000836D82B9089582B18B7382B982B18B63C2
:1009E00082B9089582B1837182B982B1836182B97B
:1009F000089582B1817182B982B1816182B908950D
:100A000082B1807182B9149A0895CF93DF9397E6EB
:100A10008902912D11249595959587FD9395990FB0
:100A2000292F220F220F920F282F291B022E000C94
:100A3000330B33231CF431952195310920930B029C
:100A400027E68202912D11249595959587FD939522
:100A5000892F9202912D11249595959587FD939557
:100A6000990F292F220F220F920F891B082E000C9D
:100A7000990B99231CF491958195910980930A0211
:100A800081E00E94D2010E94D6048FE79EE3019785
:100A9000F1F700C0000082E00E94D2018091F901CC
:100AA00088231CF40E94000503C08BE00E94D20141
:100AB0008FE79EE30197F1F700C0000083E00E94FA
:100AC000D2011298C8E0D2E08A810E949A018FE791
:100AD0009EE30197F1F700C0000084E00E94D2017C
:100AE00012980E94C6048B810E949A018FE79EE3B0
:100AF0000197F1F700C00000DF91CF9108958F9228
:100B00009F92AF92BF92CF92DF92EF92FF920F939C
:100B10001F93CF93DF938C01C62EC8E0D2E09C01D7
:100B2000ADECBCEC0E946411FC01F695E795F695DE
:100B3000E795F695E7959F01220F331FCF01880FA8
:100B4000991F880F991F880F991F820F931F980173
:100B5000281B390B2B839F010E9464119695879562
:100B600096958795969587959C01220F331F880F40
:100B7000991F880F991F880F991F820F931FE81BD9
:100B8000F90B5E2FEA8398013695279536952795C0
:100B9000ABE7B4E10E946411FC01F695E7959F0173
:100BA000ADECBCEC0E94641196958795969587955F
:100BB000969587959C01220F331F880F991F880FE8
:100BC000991F880F991F820F931FE81BF90BFE2EA8
:100BD000E98398013695279536952795369527957B
:100BE000A5ECB0E20E946411FC01F295E295EF7071
:100BF000EF27FF70EF279F01ADECBCEC0E94641162
:100C00009695879596958795969587959C01220F41
:100C1000331F880F991F880F991F880F991F820F04
:100C2000931FE81BF90BE883411120C0E1114FC06D
:100C3000F1100AC051110AC084E090E08C199109AA
:100C4000039774F0C4E013C0C1E001C0C2E084E0C7
:100C500090E08C1991092C2F30E08217930714F43F
:100C6000C4E0CC19CF5FC53010F038C0C1E00F2E02
:100C7000F5E0AF2EB12CF02DE42EF12CD12C0C2F61
:100C800010E04501801A910AE814F90421F48091DA
:100C9000F5018823C1F08C2F0E94D20112988C1488
:100CA0009D0409F4129AC43011F40E94C604F8019C
:100CB000E95FFD4F80810E949A018FE79EE30197D3
:100CC000F1F700C00000CF5FC530C8F207C084E074
:100CD00090E08C19910922F2C1E0C9CFDF91CF9148
:100CE0001F910F91FF90EF90DF90CF90BF90AF904A
:100CF0009F908F900895CF9381E00E94D201129827
:100D0000C2E00CC00E94C6048AE00E949A018FE7EC
:100D10009EE30197F1F700C0000011C08AE00E9435
:100D20009A018FE79EE30197F1F700C000008C2F36
:100D30000E94D2011298CF5FC53081F7E3CFCF91E7
:100D4000089581E00E94D2010E94DD048FE79EE3B6
:100D50000197F1F700C0000082E00E94D2010E94DA
:100D6000F9048FE79EE30197F1F700C0000083E0EC
:100D70000E94D20181E00E949A018FE79EE30197D1
:100D8000F1F700C0000084E00E94D20180E00E94E0
:100D90009A018FE79EE30197F1F700C000000895E4
:100DA00081E00E94D2010E94EB048FE79EE301974D
:100DB000F1F700C0000082E00E94D2010E94F2041C
:100DC0008FE79EE30197F1F700C00000089581E0EE
:100DD0000E94D2010E94E4048FE79EE30197F1F79D
:100DE00000C0000082E00E94D2010E94F9048FE757
:100DF0009EE30197F1F700C0000083E00E94D2015A
:100E00000E94F9048FE79EE30197F1F700C000000C
:100E10000895282F22952F7030E0A901440F551F07
:100E2000220F331F220F331F220F331F240F351FB2
:100E30008F70A901480F511DCA0108956AE070E042
:100E40000E94281162957295707F7627607F7627C1
:100E5000862B0895CF92DF92EF92FF92809103024A
:100E600090910402009759F48FEF9FEF90933B020B
:100E700080933A029093800180937F014FC020912C
:100E80001E0230911F0221153105E1F0829FB00151
:100E9000839F700D929F700D112480E090E00E945E
:100EA0002C0E9B01AC0160E876E988E99AE40E9487
:100EB0008B0D0E94CF0F0E94FD0D70933B0260933B
:100EC0003A0206C08FEF9FEF90933B0280933A0265
:100ED00060913A0270913B0280E090E00E942C0EFB
:100EE0006B017C016091F7017091F80180E090E066
:100EF0000E942C0E9B01AC01C701B6010E94120F8B
:100F00002AE037ED43E25CE30E94120F0E94CF0F0C
:100F10000E94FD0D7093800160937F01FF90EF9020
:100F2000DF90CF900895CF93DF93CDB7DEB72897AA
:100F30000FB6F894DEBF0FBECDBF1C821B8210928D
:100F40002B0210922C0210922D0210922E028FEF83
:100F50009FEF90933B0280933A029093800180939D
:100F60007F0181B98FE084B988E787B980E88AB9C1
:100F700014BC95E095BD16BC81E085BB80936E00E6
:100F8000109280009093810027EF32EC309385001F
:100F90002093840086BB80936F0092E09093B10011
:100FA0009AED9093B20087BB80937000E0E6F0E08A
:100FB0008081886180838EE080830E9400010E948E
:100FC00059048CE390E00E942A0C78942FEF34E3CC
:100FD0008CE0215030408040E1F700C000000CE080
:100FE00012E080EDD8018C9388E011968C9362E03A
:100FF000C8010E94780C81EDF801808367E0C80188
:101000000E94780C67E0C8010E949B0CEBE2F2E0C2
:10101000D80111968C911197808312968C9112971A
:10102000818313968C911397828314968C911497D5
:10103000838315968C9115978093F90116969C9150
:10104000909307029150953018F091E09093070229
:10105000845F8A3110F01092F9010CE012E00F2E3B
:10106000FBE2EF2EF2E0FF2EF02D6E01B3E0CB0E8F
:10107000D11CFE0131961F010F2EFAE04F2EF1E038
:101080005F2EF02D0F2EFFE96F2EF1E07F2EF02D59
:10109000A8958091FB01833038F180EDD8018C93C5
:1010A00088E011968C931197F701808112968C93AA
:1010B0001297818113968C931397828114968C9347
:1010C0001497838115968C9315978091F901169644
:1010D0008C9316978091070217968C9368E0C8014D
:1010E0000E94780C1092FB01809133028111A5C3FC
:1010F000B09006028BEF8B0D8E3208F0ADC0809160
:1011000025028111A9C080912302882389F0809152
:10111000F9018F5F8093F9018E3024F084EF809382
:10112000F90194C3843F0CF091C31092F9018EC36E
:1011300080913C028130E9F5609124026623A9F197
:1011400070E061507109072E000C880B990B0E940A
:101150002E0E9B01AC0160E070E080E291E40E9401
:101160007F0F6D837E838F83988760911E027091BD
:101170001F0280E090E00E942C0E2D813E814F8165
:1011800058850E941A0D0E94FD0D6F3F710509F0F0
:1011900028F470931F0260931E0258C321E030E0D0
:1011A00030931F0220931E0251C381E080932402DA
:1011B0004DC3823009F044C0A090FA01AA2081F109
:1011C0006A2D70E061507109072E000C880B990B95
:1011D0000E942E0E9B01AC0160E070E080E291E481
:1011E0000E947F0F6D837E838F8398876091F701C4
:1011F0007091F80180E090E00E942C0E2D813E81DC
:101200004F8158850E941A0D0E94FD0D64367105AC
:1012100058F081E090E09093F8018093F70108C0C6
:1012200081E08093FA0112C37093F8016093F70193
:1012300094E09A1508F00AC381E08093FA0106C38E
:1012400080910702853020F48F5F80930702FEC2F1
:1012500081E080930702FAC28EEC8B0D833308F095
:10126000F2C280910401882309F4EDC280913C020E
:10127000813061F4809124028F5F853018F480936F
:10128000240211C081E0809324020DC0823059F401
:101290008091FA018F5F853018F48093FA0103C0C2
:1012A00081E08093FA011092040185E08093250289
:1012B0001092F501C8C280910401882309F498C0F6
:1012C00080910702813009F050C080913C028F5F0D
:1012D000833018F480933C0202C010923C021092BA
:1012E00024021092FA018091F7019091F80184365E
:1012F000910578F0A3E6B0E0B093F801A093F70170
:1013000080911E0290911F028F3F910509F048F4D1
:101310001DC020911E0230911F022F3F310571F038
:1013200068F0EFEFF0E0F0931F02E0931E0280916F
:10133000F7019091F801892B19F014C0892B31F431
:1013400021E030E03093F8012093F70180911E02F4
:1013500090911F02892B31F481E090E090931F025D
:1013600080931E020E9451013EC0823019F51092F6
:101370002B0210922C0210922D0210922E0210922B
:1013800002021092010280EDD8018C9388E0119640
:101390008C93119712961C92129713961C92139786
:1013A00014961C92149715961C9266E0C8010E9430
:1013B000780C19C08430B9F480912302882361F03D
:1013C00080EDF80180838CE081838091F901828334
:1013D00063E0C8010E94780C81E090912302911192
:1013E00080E0809323021092040185E0809325021F
:1013F000809107020E946E0180912002863008F4DD
:1014000056C1A7EEB1E08C91809305028134C9F5F5
:10141000DF92CF923F922F925F924F9283E891E0BA
:101420009F938F930E94991189819A81BC01660FC5
:10143000771F880F991F880F991F880F991F860F94
:10144000971F6B817C81680F791F072E000C880B1A
:10145000990B0E942E0E26E53EE04DEE5FE30E94C2
:10146000120F0E94CF0F0E94FD0D70930402609333
:1014700003020E942A070FB6F894DEBF0FBECDBF4D
:1014800006C010920402109203020E942A07809163
:101490003C02882341F084E690E09093040280931C
:1014A00003020E942A07DF92CF923F922F925F920F
:1014B0004F927F926F920E94991189819A810FB603
:1014C000F894DEBF0FBECDBF883E33E09307A4F48F
:1014D0009C01220F331F880F991F880F991F880FB7
:1014E000991F820F931F2B813C81820F931F909332
:1014F00000028093FF0104C0909300028093FF01DB
:1015000080902B0290902C02A0902D02B0902E0281
:10151000C501B4010E942C0E6D837E838F83988752
:1015200020E034E244E759E40E94860D882334F534
:1015300020E030E44CE156E46D817E818F81988516
:101540000E94860D88236CF4C501B4012AE030E0C6
:1015500040E050E00E943C113093020220930102CF
:1015600019C0C501B40124E630E040E050E00E941B
:101570003C1130930202209301020CC0C501B4015A
:1015800028EE33E040E050E00E943C11309302022C
:101590002093010280910502813409F052C04091EC
:1015A000F90164E070E089EE91E00E946904AC0109
:1015B00090932202809321028091F60181113AC01A
:1015C00080EDD8018C9311961C921197E9EEF1E011
:1015D0008481982F9295907F85818053892B1296D4
:1015E0008C935A01B694A794B694A7949501ABE74F
:1015F000B4E10E9464119695879564E6689F900116
:10160000699F300D1124CA01821B930B0E941E0793
:10161000F80183839501ABE7B4E10E9464119695CC
:1016200087950E941E07D80114968C9365E0C80127
:101630000E94780C81E08093F6018091050281344C
:1016400061F180EDF8018083118262E0C8010E949F
:10165000780C81EDD8018C9367E0C8010E94780C6A
:1016600067E0C8010E949B0CF80183818F7B0E9478
:1016700009075C01D80112968C910E94090744E683
:101680004A9D90014B9D300D1124820F931F909322
:101690002202809321021092F6018BEA91E00E94CF
:1016A00073119093FE018093FD01109220028091AE
:1016B000FC018C3310F01092FC0180910702823003
:1016C00009F449C028F4882361F0813069F0E0CC46
:1016D000843009F497C008F477C0853009F4A4C0B9
:1016E000D7CC0E94E706D4CC80913C02811110C077
:1016F00080910502813449F440E062E08091030268
:10170000909104020E947F05C3CC0E947B06C0CC4E
:10171000813079F440912402442341F060E08091CB
:101720001E0290911F020E947F05B2CC0E94A1066A
:10173000AFCC823009F0ACCC4091FA01442341F0A7
:1017400060E08091F7019091F8010E947F05A0CCA4
:101750000E94D0069DCC60912B0270912C0280914A
:101760002D0290912E020E942C0E4B015C0120E074
:1017700034E244E759E40E94860D8823E4F420E033
:1017800030E44CE156E4C501B4010E94860D882383
:101790004CF440E063E080910102909102020E94CB
:1017A0007F0576CC40E062E08091010290910202D8
:1017B0000E947F056DCC40E060E080910102909135
:1017C00002020E947F0564CC809105028134B9F445
:1017D00089819A81883E93404CF440E062E0809198
:1017E000FF01909100020E947F0552CC40E060E032
:1017F0008091FF01909100020E947F0549CC0E94D8
:101800007B0646CC80912302882329F08091F90140
:101810000E9405053DCC40E063E08091210290915B
:1018200022020E947F0534CC40E060E08091FD01FF
:101830009091FE010E947F052BCC80930602843696
:1018400008F039CDD5CD10920602D2CD85E0809337
:10185000250202CDCF92DF92EF92FF921F93CF939A
:10186000DF93BC0180E89EE30E9414116B01E12C20
:10187000F12C80E1C81AD108E108F1082091050196
:1018800030E040E050E0C701B6010E943C11822FD9
:10189000215031092F3F310590F0C6E0D1E011E031
:1018A000299130E040E050E0C701B6010E943C11B0
:1018B000822F215031092F3F310570F401C010E013
:1018C0008093B8001093B9008FEF8093BB0084E041
:1018D0008093BC008FEF04C01F5F143009F780E0D5
:1018E000DF91CF911F91FF90EF90DF90CF900895FF
:1018F000FC01ACEBB0E09C9190FDFDCF6093150234
:10190000808180931602808180FD0EC0623060F07D
:10191000319621E030E08191D901AA5EBD4F8C93D0
:101920002F5F3F4F2617B8F388EF8093090185EAB0
:101930008093BC000895ECEBF0E0208120FDFDCF0A
:10194000209109012F3F71F4662361F0E82FF92FF0
:1019500080E090E0DC01AA5EBD4F2C9121930196BE
:101960008617C0F38091090108952091B9002C7F5A
:10197000822F90E0FC013897E135F10508F053C063
:10198000E75BFF4F0C945E1110921402E091140279
:1019900080911502E81778F4F0E0EA5EFD4F80814F
:1019A0008093BB0085E88093BC00809114028F5F18
:1019B0008093140208958FEF8093090184E9809346
:1019C000BC00089580911402E82FF0E09091BB00D4
:1019D000EA5EFD4F90838F5F809314028091150221
:1019E0002091140230E090E001972817390724F481
:1019F00085EC8093BC00089585E88093BC00089531
:101A0000E0911402F0E08091BB00EA5EFD4F80831C
:101A10008FEF8093090184E98093BC00089585EAE3
:101A20008093BC0008952093090184E08093BC005A
:101A300008955058BB27AA270E94310D0C94CB0E55
:101A40000E94BD0E38F00E94C40E20F039F49F3F72
:101A500019F426F40C94930E0EF4E095E7FB0C9425
:101A60008D0EE92F0E94DC0E58F3BA176207730738
:101A70008407950720F079F4A6F50C94FE0E0EF479
:101A8000E0950B2EBA2FA02D0B01B90190010C018E
:101A9000CA01A0011124FF27591B99F0593F50F4A6
:101AA000503E68F11A16F040A22F232F342F4427FE
:101AB000585FF3CF469537952795A795F0405395F6
:101AC000C9F77EF41F16BA0B620B730B840BBAF0C6
:101AD0009150A1F0FF0FBB1F661F771F881FC2F731
:101AE0000EC0BA0F621F731F841F48F48795779545
:101AF0006795B795F7959E3F08F0B0CF9395880FFF
:101B000008F09927EE0F9795879508950E94690E22
:101B100008F481E008950E949F0D0C94CB0E0E9462
:101B2000C40E58F00E94BD0E40F029F45F3F29F02A
:101B30000C948D0E51110C94FF0E0C94930E0E9478
:101B4000DC0E68F39923B1F3552391F3951B550BE4
:101B5000BB27AA2762177307840738F09F5F5F4F80
:101B6000220F331F441FAA1FA9F335D00E2E3AF0BF
:101B7000E0E832D091505040E695001CCAF72BD0D7
:101B8000FE2F29D0660F771F881FBB1F2617370728
:101B90004807AB07B0E809F0BB0B802DBF01FF275A
:101BA00093585F4F3AF09E3F510578F00C948D0E9C
:101BB0000C94FF0E5F3FE4F3983ED4F3869577953F
:101BC0006795B795F7959F5FC9F7880F911D969513
:101BD000879597F90895E1E0660F771F881FBB1F6F
:101BE000621773078407BA0720F0621B730B840B1C
:101BF000BA0BEE1F88F7E09508950E94E40E88F076
:101C00009F5798F0B92F9927B751B0F0E1F0660FC0
:101C1000771F881F991F1AF0BA95C9F714C0B13001
:101C200091F00E94FE0EB1E008950C94FE0E672F15
:101C3000782F8827B85F39F0B93FCCF38695779530
:101C40006795B395D9F73EF4909580957095619519
:101C50007F4F8F4F9F4F0895E89409C097FB3EF444
:101C600090958095709561957F4F8F4F9F4F9923E9
:101C7000A9F0F92F96E9BB279395F6958795779567
:101C80006795B795F111F8CFFAF4BB0F11F460FF27
:101C90001BC06F5F7F4F8F4F9F4F16C0882311F07F
:101CA00096E911C0772321F09EE8872F762F05C093
:101CB000662371F096E8862F70E060E02AF09A952E
:101CC000660F771F881FDAF7880F9695879597F923
:101CD0000895990F0008550FAA0BE0E8FEEF1616BD
:101CE0001706E807F907C0F012161306E407F50710
:101CF00098F0621B730B840B950B39F40A2661F084
:101D0000232B242B252B21F408950A2609F4A14026
:101D1000A6958FEF811D811D089597F99F6780E833
:101D200070E060E008959FEF80EC0895DF93CF931B
:101D30001F930F93FF92EF92DF927B018C016894C7
:101D400006C0DA2EEF010E94250FFE01E894A5914E
:101D50002591359145915591A6F3EF010E94310DE2
:101D6000FE019701A801DA9469F7DF90EF90FF90E8
:101D70000F911F91CF91DF91089500240A941616B8
:101D8000170618060906089500240A941216130669
:101D9000140605060895092E0394000C11F48823F7
:101DA00052F0BB0F40F4BF2B11F460FF04C06F5F13
:101DB0007F4F8F4F9F4F089557FD9058440F551FE9
:101DC00059F05F3F71F04795880F97FB991F61F0BD
:101DD0009F3F79F087950895121613061406551F34
:101DE000F2CF4695F1DF08C0161617061806991FA0
:101DF000F1CF86957105610508940895E894BB2795
:101E000066277727CB0197F908950E94690E08F499
:101E10008FEF08959B01AC0160E070E080E89FE3E4
:101E20000C948B0D0E94250F0C94CB0E0E94BD0EBE
:101E300038F00E94C40E20F0952311F00C948D0E02
:101E40000C94930E11240C94FF0E0E94DC0E70F380
:101E5000959FC1F3950F50E0551F629FF001729F4F
:101E6000BB27F00DB11D639FAA27F00DB11DAA1F5E
:101E7000649F6627B00DA11D661F829F2227B00DAB
:101E8000A11D621F739FB00DA11D621F839FA00D36
:101E9000611D221F749F3327A00D611D231F849F86
:101EA000600D211D822F762F6A2F11249F575040DD
:101EB0009AF0F1F088234AF0EE0FFF1FBB1F661F58
:101EC000771F881F91505040A9F79E3F510580F021
:101ED0000C948D0E0C94FF0E5F3FE4F3983ED4F308
:101EE000869577956795B795F795E7959F5FC1F7C5
:101EF000FE2B880F911D9695879597F90895FA0105
:101F0000EE0FFF1F309621053105A1F16115710516
:101F100061F48038BFE39B0749F1689490388105EC
:101F200061F08038BFEF9B0741F099234AF5FF3FEE
:101F3000E1053105210519F1E8940894E795D901E7
:101F4000AA2329F4AB2FBE2FF85FD0F310C0FF5F98
:101F500070F4A695E0F7F73950F019F0FF3A38F42D
:101F60009F779F930DD00F9007FC9058089546F0EF
:101F70000C94930E60E070E080E89FE308954FE7D3
:101F80009F775F934F933F932F930E9498102F91C9
:101F90003F914F915F910E94120F0C94FB0F0E9492
:101FA000E40EE8F09E37E8F09639B8F49E3848F42D
:101FB000672F782F8827985FF9CF86957795679553
:101FC00093959539D0F3B62FB1706B0F711D811DAC
:101FD00020F487957795679593950C942D100C9424
:101FE00048100C94FF0E29F416F00C948D0E0C94EE
:101FF000FE0E0C94930E0E94E40EA8F39638A0F700
:1020000007F80F92E8942BE33AEA48EB5FE70E9467
:10201000280F0F920F920F924DB75EB70F920E944A
:10202000E010E4E3F1E00E94960E4F915F91EF9192
:10203000FF91E595EE1FFF1F49F0FE57E06844272A
:10204000EE0F441FFA95E1F74195550B0E945A1087
:102050000F9007FE0C940A0F0895882371F47723DC
:1020600021F09850872B762F07C0662311F499270B
:102070000DC09051862B70E060E02AF09A95660FB3
:10208000771F881FDAF7880F9695879597F9089537
:102090009F3F31F0915020F4879577956795B795DC
:1020A000880F911D9695879597F908950C948D0E3C
:1020B0000C9448100E94E40ED8F39923C9F3940FAE
:1020C000511DA3F39150504094F059F0882332F001
:1020D000660F771F881F91505040C1F79E3F5105F2
:1020E0002CF7880F911D9695879597F908955F3F76
:1020F000ACF0983E9CF0BB27869577956795B79591
:1021000008F4B1609395C1F7BB0F58F711F460FF65
:10211000E8CF6F5F7F4F8F4F9F4FE3CF0C94FF0E41
:1021200016F00C9448100C94930E68940C948D0E39
:102130000E94E40EA8F39923C1F3AEF3DF93CF938B
:102140001F930F93FF92C92FDD2788232AF0219731
:10215000660F771F881FDAF720E030E040E85FEB7A
:102160009FE3883920F0803E38F021968F770E94D7
:102170001A0DECE5F1E004C00E941A0DE9E8F1E067
:102180000E94960E8B01BE01EC01FB2E6F57710968
:102190007595771F880B990B0E942E0E28E132E768
:1021A00041E35FE30E94250FAF2D9801AE01FF9040
:1021B0000F911F91CF91DF910E94310D0C94CB0EA6
:1021C000FA01DC01AA0FBB1F9B01AC01BF5728F429
:1021D000222733274427507820C0B75190F4AB2FE3
:1021E0000024469537952795011CA395D2F300202E
:1021F00071F0220F331F441FB395DAF30ED00C9405
:10220000190D61307105A0E88A07B94630F49B01C9
:10221000AC016627772788279078309621F02083B5
:102220003183428353830895AA1BBB1B51E107C02E
:10223000AA1FBB1FA617B70710F0A61BB70B881F56
:10224000991F5A95A9F780959095BC01CD010895E5
:1022500097FB072E16F4009407D077FD09D00E9453
:10226000141107FC05D03EF4909581959F4F089579
:10227000709561957F4F0895A1E21A2EAA1BBB1B92
:10228000FD010DC0AA1FBB1FEE1FFF1FA217B30742
:10229000E407F50720F0A21BB30BE40BF50B661F58
:1022A000771F881F991F1A9469F76095709580951C
:1022B00090959B01AC01BD01CF010895EE0FFF1F6A
:1022C0000590F491E02D0994A29FB001B39FC00145
:1022D000A39F700D811D1124911DB29F700D811D52
:1022E0001124911D0895FC0188279927E8942191D4
:1022F0002032E9F3293010F02E30C8F32B3241F0B0
:102300002D3239F4689404C00E949111820F911DFE
:10231000219120532A30C0F31EF4909581959F4F50
:1023200008957AE0979F902D879F802D910D11241D
:102330000895AEE0B0E0EFE9F1E10C94061585E018
:102340008C838B899C899A838983AE01495E5F4F18
:102350006D897E89CE0101960E944E132E96E2E091
:102360000C94221520FD09C0FC0123FD05C022FFAD
:1023700002C07383628351834083089544FD17C074
:1023800046FD17C0AB01BC01DA01FB01AA0FBB1F60
:10239000EE1FFF1F1094D1F74A0F5B1F6E1F7F1FA8
:1023A000CB01BA01660F771F881F991F09C033E060
:1023B00001C034E0660F771F881F991F3150D1F795
:1023C000620F711D811D911D08950F931F93CF936F
:1023D000DF938C01C8010E947314EC0197FD08C0C3
:1023E0000E945F14892BB1F7B801CE010E94B1148D
:1023F000CE01DF91CF911F910F9108958F929F92FF
:10240000AF92BF92EF92FF920F931F93CF93DF9300
:102410008C01D62F7A01B22E0E9473149C013327AF
:102420002B32310531F02D32310561F48B2D80686E
:10243000B82ED15011F480E068C0C8010E94731416
:1024400097FDF9CFCB2DCD7F2B2D207309F5803350
:10245000F9F4AA24AA94AD0E09F443C0C8010E945D
:10246000731497FD3EC09C012F7D3327283531051D
:1024700049F4C264D250A9F1C8010E94731497FFB5
:1024800007C02FC0B6FE02C0C26001C0C261DA2D13
:10249000812C912C540120ED280F283080F0C4FFAE
:1024A00004C0B8010E94B11419C02A3040F0C6FF20
:1024B000F8CF2F7D3FEE320F363098F727504C2F54
:1024C000C501B4010E94BE114B015C01C260D15034
:1024D00059F0C8010E94731497FFDDCFC1FD04C0FD
:1024E000AACF812C912C5401C7FF08C0B094A094AE
:1024F00090948094811C911CA11CB11C2C2FB501BF
:10250000A401C7010E94B21181E0DF91CF911F9118
:102510000F91FF90EF90BF90AF909F908F90089594
:10252000A0E2B0E0E6E9F2E10C94F9145C01962E29
:102530007A01F9018E010F5F1F4F680180E2D80117
:102540001D928A95E9F7D50113968C9080E090E072
:10255000612C712C30E061E070E083FC259183FEFA
:1025600021918F01522E211103C080E090E092C092
:102570002E3511F4009751F1432F50E048175907B9
:102580003CF42D3559F12D3219F4772009F103C0AF
:10259000772009F46AC0452D469546954695D601A3
:1025A000A40FB11D452D47708B0102C0000F111FF4
:1025B0004A95E2F7A8015C91452B4C93651459F0BC
:1025C000561410F45394E7CF5A94E5CF31E004C089
:1025D0007724739401C0712C0196BFCF772019F036
:1025E0008E8180628E83311103C08824839417C04A
:1025F000F6019E012F5D3F4F8081809581932E17BC
:102600003F07D1F7F2CFE114F10429F0D7018C9301
:10261000F70131967F019A94812C9920F9F0C50138
:102620000E94731497FD18C0FC01FF2723E0F59565
:10263000E7952A95E1F7EC0DFD1D208130E0AC0116
:102640004770552702C0359527954A95E2F720FD3A
:10265000DACFB5010E94B114811087CFE114F104E3
:1026600011F0D7011C92C80115C0422F469546951E
:102670004695D601A40FB11D422F47708B0102C0B1
:10268000000F111F4A95E2F7A8015C91452B4C936E
:10269000622EA2CFA096EFE00C941515A0E0B0E05A
:1026A000E4E5F3E10C94F9146C01EB015A01FC012F
:1026B00017821682512CF601E380FE01E3FC85911E
:1026C000E3FE8191182FEF01882309F4EEC090E01A
:1026D0000E945F14892B21F0C6010E94E511EBCF07
:1026E000153241F4FE01E3FC1591E3FE1191EF0177
:1026F000153281F4C6010E94731497FDD4C0412F96
:1027000050E09C01332724173507A9F2B6010E9437
:10271000B114CBC01A3239F4E3FC1591E3FE1191E8
:10272000EF0101E001C000E0F12C20ED210F2A3083
:1027300080F402606F2D70E080E090E040E20E9443
:10274000BE11F62EFE01E3FC1591E3FE1191EF019F
:10275000ECCF01FF03C0F11003C0A7C0FF24FA941F
:10276000183619F01C3651F010C0FE01E3FC15912B
:10277000E3FE1191EF01183641F408600460FE0198
:10278000E3FC1591E3FE1191EF01112309F48DC0D3
:10279000612F70E086EB91E00E946814892B09F4A8
:1027A00084C000FD07C0F50180809180C5010296BC
:1027B0005C0102C0812C912C1E3651F4F601468139
:1027C000578160E070E0202FC4010E94B21173CFE6
:1027D0001336A9F401FD02C0FF24F394C6010E9440
:1027E000731497FD60C08114910429F0F401808373
:1027F000C40101964C01FA94F110F0CF50C01B3582
:1028000059F49E01A4016F2DC6010E949012EC01A3
:10281000892B09F044C03EC0C6010E94E51197FD16
:1028200042C01F3661F128F4143639F1193651F1DE
:1028300028C0133771F0153701F123C081149104BA
:1028400029F0F4016082C40101964C01FA94FF2042
:1028500071F0C6010E9473143C0197FD08C00E94EC
:102860005F14892B59F3B601C3010E94B11481147E
:102870009104A9F0F401108212C0006203C000614B
:1028800001C00064202FA4016F2DC6010E94FE111B
:10289000811105C0F6018381807329F406C000FD13
:1028A0000ACF539408CF552019F0852D90E002C02F
:1028B0008FEF9FEFCDB7DEB7EFE00C9415159111B8
:1028C0000C94CA14803219F089508550C8F70895C5
:1028D000FC010590061621F00020D9F7C0010895EB
:1028E0003197CF010895CF93DF93EC012B8120FF27
:1028F00033C026FF0AC02F7B2B838E819F810196D8
:102900009F838E838A8190E029C022FF0FC0E881D7
:10291000F9818081082E000C990B009719F4206230
:102920002B831AC03196F983E8830EC0EA85FB85B4
:10293000099597FF09C02B81019611F080E201C033
:1029400080E1822B8B8308C02E813F812F5F3F4F18
:102950003F832E83992702C08FEF9FEFDF91CF91A6
:102960000895FB01238120FF12C026FD10C08F3F78
:102970003FEF930761F082832F7D206423832681BC
:1029800037812150310937832683992708958FEFA6
:102990009FEF0895992788270895A8E1B0E042E0C5
:1029A00050E00C94DA140E94E814272F0C94E914D8
:1029B000DC01CB01FC01F999FECF06C0F2BDE1BDFF
:1029C000F89A319600B40D9241505040B8F70895EE
:1029D000262FF999FECF1FBA92BD81BD20BD0FB63B
:1029E000F894FA9AF99A0FBE019608952F923F92A1
:1029F0004F925F926F927F928F929F92AF92BF920F
:102A0000CF92DF92EF92FF920F931F93CF93DF93BA
:102A1000CDB7DEB7CA1BDB0B0FB6F894DEBF0FBE17
:102A2000CDBF09942A88398848885F846E847D8464
:102A30008C849B84AA84B984C884DF80EE80FD8066
:102A40000C811B81AA81B981CE0FD11D0FB6F894DC
:0E2A5000DEBF0FBECDBFED010895F894FFCF9D
:102A5E007B01FFFF0102082080F825642E253164DA
:102A6E00008B018B019B018B018B018B018B018BE9
:102A7E00018B018B018B018B018B018B018B018BE8
:102A8E00018B018B018B018B018B018B018B018BD8
:102A9E00018B018B018B01AB018B019F018B018B94
:102AAE00018B018B018B018B018B01E901E701D7B2
:102ABE0001D401C801C5018301BB01AF018B018B9C
:082ACE00018B018B018B01005B
:00000001FF
